:1000000000207047704708B5406803681B6998472F
:10001000003818BF012008BD10B5144640680368B9
:100020005B689847204610BD704707B503688DF898
:10003000071001225B680DF10701984703B05DF8D6
:1000400004FB0000004B1847000000000148024B71
:10005000184700BF000000000000000010B5044673
:100060000821024B9847204610BD00BF0000000049
:1000700070B504460D46164600214068044B98476B
:10008000324629466068034BBDE87040184700BF00
:10009000000000000000000013B5064B0C460122D2
:1000A00001A99847012812BF00209DF80430237051
:1000B00002B010BD00000000004908470000000029
:1000C0000148024B184700BF00000000000000007C
:1000D0000148024B184700BF00000000000000006C
:1000E000012A10B50C4602D10160002010BD022A81
:1000F00005D0032AF9D0002AF7D10260F5E70146BE
:10010000024B0420984723680360EEE700000000DC
:100110000368184738B50C1A002C134605DD014654
:1001200022461846024DA8470346181938BD00BF9D
:1001300000000000002810B506D001DA034B9847F4
:10014000034BBDE81040184710BD00BF0000000081
:1001500000000000004B18470000000070B5044686
:1001600000F508764FF0FF334FF0FF32304612496A
:100170008847D4F81C320025ABB1D4F81C32BBB18F
:10018000D4F8183223441D7DD4F818320133C3F358
:100190000803C4F81832D4F81C32013BC4F81C32EE
:1001A000D4F81C32EDB23046044B9847284670BD57
:1001B0004FF0FF35F4E700BF000000000000000032
:1001C00038B5044600F508754FF0FF324FF0FF33A5
:1001D00028460A498847D4F81C222846084B42B1D1
:1001E0009847D4F81C322BB1D4F818321C44207D27
:1001F00038BD98474FF0FF30FAE700BF000000001D
:10020000000000000A200021004B184700000000F9
:1002100010B58368044613B103220146984720466F
:1002200010BD000010B50446034B40F8043B034BDF
:100230009847204610BD00BF0800000000000000E5
:1002400010B50446034B984720461421024B9847AB
:10025000204610BD0000000000000000D0E901238E
:100260009B1A0269B2EBA30F84BF00234375407D44
:100270007047D0E90132934218BF836000230361C5
:1002800083820360704710B5D0E901431B1BB1EBBB
:10029000A30F3DBF54F821300068D218002038BFAA
:1002A000801810BD70B5074E051D0446314628461E
:1002B000054B98470023314623602846034B984757
:1002C000204670BD0000000000000000000000009B
:1002D0000022C0E90022C0E9022202618282704746
:1002E00038B54FF4807200210C4B04460025984726
:1002F0004FF0FF330A49C4E94053C4F80851094B91
:1003000004F586709847C4E94655C4E94855064B3C
:1003100004F594709847204638BD00BF00000000E7
:10032000000000000000000000000000002330B5C5
:1003300001258BB005AACDE90533CDE90733099333
:1003400003600261836193FAA3F2436A0446CDE934
:100350000122CDE90322456103B19847044B84F89B
:10036000215001A898470023A3610BB030BD00BF06
:100370000000000008B50248024B984708BD00BFC6
:1003800000000000000000007047000010B50446A7
:10039000006818B1A168024B091A9847204610BDA1
:1003A0000000000008B50248024B984708BD00BF96
:1003B000000000000000000008B50248024B98470A
:1003C00008BD00BF000000000000000030B58368D9
:1003D00085B003930023D0E900420D68CDE90142C6
:1003E00005604D6845608D688560C1E900338B60AC
:1003F00001A8024B984705B030BD00BF00000000C7
:1004000010B5D0E901431B1BB1EBA30F3DBF03683F
:1004100054F82110D218002038BF505C10BD0000E5
:1004200008B5D0E90132D31AB1EBA30F15D2114BA5
:1004300000229847030612D58F2812D99F2812D977
:10044000BF2812D9C02807D0C12805D0C3280ED98B
:10045000E02828BFE020C0B208BDC120FCE7002092
:10046000FAE78020F8E79020F6E7A020F4E7C22022
:10047000F2E700BF0000000008B5024B0169984791
:1004800008BD00BF0000000073B50569D0E9016335
:100490009B1BB5EBA30F044603D300234375002039
:1004A00016E0012343750D4B9847D22805F101034F
:1004B00010D1236156F825002268031D134401A9B9
:1004C000024413F801099A4201F8010BF9D101988D
:1004D00002B070BD002223616275E0E700000000F9
:1004E00073B50569D0E901639B1BB5EBA30F044607
:1004F00004D3002343750020002118E00123437535
:100500000E4B9847D32805F1010312D169462361A8
:1005100056F82500226800F108031344024413F83A
:1005200001099A4201F8010BF9D1DDE9000102B09D
:1005300070BD002223616275DDE700BF000000008E
:1005400070B50669D0E901239B1AB6EBA30F0446E8
:1005500003D300234375002008E00125064B4575B1
:100560009847C0282E4402D12846266170BD00233A
:1005700026616375EFE700BF0000000008B5064B79
:100580009847902806D02430C0B201288CBF0020A4
:10059000012008BD0120FCE70000000008B5064B63
:1005A0009847802806D02230C0B201288CBF002096
:1005B000012008BD0120FCE70000000008B5064B43
:1005C0009847E02806D03030C0B203288CBF002006
:1005D000012008BD0120FCE70000000008B5064B23
:1005E000984730B13430C0B203288CBF00200120BE
:1005F00008BD0120FCE700BF0000000073B50569DD
:10060000D0E901639B1BB5EBA30F044604D3002381
:1006100043759FED100A17E0012343750E4B984771
:10062000CA2805F1010311D1236156F8250022687B
:10063000031D134401A9024413F801099A4201F869
:10064000010BF9D19DED010A02B070BD00222361BA
:100650006275DEE7000000000000000070B505696B
:10066000D0E901639B1BB5EBA30F044603D3002322
:100670004375002011E0012343750A4B9847D128A8
:1006800005F101030AD1236156F82520236813449C
:1006900098785B7863F30F2000B270BD002223616D
:1006A0006275E6E70000000073B50569D0E90163F3
:1006B0009B1BB5EBA30F044604D3002343759FEDAA
:1006C000120B18E001234375114B9847CB2805F115
:1006D000010312D16946236156F82500226800F112
:1006E00008031344024413F801099A4201F8010B6C
:1006F000F9D19DED000B02B070BD0022236162753F
:10070000DDE700BFAFF30080000000000000000044
:100710000000000038B50569D0E901239B1AB5EB4C
:10072000A30F044603D30023437500200EE00123EA
:100730004375094B9847E02805F1010307D1236170
:10074000002229462046054B984740B238BD00227A
:1007500023616275E9E700BF0000000000000000AF
:1007600038B50569D0E901239B1AB5EBA30F044600
:1007700003D30023437500200DE001234375084B8C
:1007800098476B1C024638B9236129462046054B21
:10079000984700F07F0038BD002223616275EAE7C8
:1007A000000000000000000070B50569D0E90123D9
:1007B0009B1AB5EBA30F044603D300234375002017
:1007C0000DE00126084B46759847CC2805EB06033B
:1007D00006D12361324629462046044B984770BD16
:1007E000002223616275EAE70000000000000000BB
:1007F00010B5D0E901431B1BB1EBA30F37BF54F871
:1008000021300020D21803683FBF991848789B5CBC
:1008100040EA032010BD000070B50569D0E901234E
:100820009B1AB5EBA30F044603D3002343750020A6
:100830000DE00126084B46759847CD2805EB0603C9
:1008400006D12361324629462046044B984770BDA5
:10085000002223616275EAE700000000000000004A
:1008600013B5D0E901431B1BB1EBA30F10D254F811
:10087000213001681A44131D0B4401A8114413F8D8
:10088000012D8B4200F8012BF9D1019802B010BD67
:100890000020FBE738B5424B04460D469847002838
:1008A00077D08038C3B2602B75D8602873D8DFE862
:1008B00000F070727272727272727272727272720E
:1008C000727270727272727272727272727272720A
:1008D00072723F727272727272727272727272722B
:1008E00072727272727272727272727272727272E8
:1008F000727270727072484F565D62693539743128
:100900003539743135393133373B3D484F56313500
:1009100031357000032038BD0420FCE70520FAE7DC
:100920000620F8E70920F6E70A20F4E71220F2E7AC
:100930000022294620461B4B984700F01F0001303B
:10094000E9E7012229462046164B98470230E2E7A4
:10095000012229462046144B98470330DBE7012249
:1009600029462046114B98470530D4E701222946F5
:1009700020460C4BF0E70122294620460A4B9847B7
:100980000430C8E7012229462046084B9847063024
:10099000C1E70120BFE70020BDE70220BBE700BFA1
:1009A0000000000000000000000000000000000047
:1009B00070B50569D0E901239B1AB5EBA30F044676
:1009C00003D300234375002013E00126124B467524
:1009D0009847DC2805EB06030CD0DD2811D09028C1
:1009E00015D123610022294620460C4B984700F080
:1009F0000F0070BD3246294620462361084B9847B8
:100A0000F7E72361324629462046064BF7E70022E6
:100A100023616275D7E700BF0000000000000000FE
:100A2000000000000000000038B5037D04460D46BC
:100A30001BB1D0E901239A4202D10023637538BD6E
:100A40009B1A0269B2EBA30FF7D2054B98472860B7
:100A5000637D002BF3D02046024B9847EFE700BFA1
:100A6000000000000000000070B50569D0E9012316
:100A70009B1AB5EBA30F044603D300234375002054
:100A80000DE00126084B46759847CE2805EB060376
:100A900006D12361324629462046044B984770BD53
:100AA000002223616275EAE70000000000000000F8
:100AB00070B50569D0E901239B1AB5EBA30F044675
:100AC00003D300234375002013E00126124B467523
:100AD0009847DE2805EB06030CD0DF2811D08028CC
:100AE00015D123610022294620460C4B984700F07F
:100AF0000F0070BD3246294620462361084B9847B7
:100B0000F7E72361324629462046064BF7E70022E5
:100B100023616275D7E700BF0000000000000000FD
:100B2000000000000000000013B5D0E901431B1BCA
:100B3000B1EBA30F12D254F82130016868461A4471
:100B400002F108030B44114413F8012D8B4200F805
:100B5000012BF9D1DDE9000102B010BD0020002118
:100B6000FAE7000070B50569D0E901239B1AB5EBDF
:100B7000A30F044604D300234375002001460DE073
:100B80000126094B46759847CF2805EB060306D189
:100B90002361324629462046044B984770BD002207
:100BA00023616275E9E700BF00000000000000005B
:100BB00010B5D0E901431B1BB1EBA30F3DBF036888
:100BC00054F82110D218002038BF505610BD000034
:100BD00070B50569D0E901239B1AB5EBA30F044654
:100BE00003D30023437500200DE00126084B467512
:100BF0009847D02805EB060306D1236132462946E3
:100C00002046044B984770BD002223616275EAE7D5
:100C1000000000000000000010B5084B0446984793
:100C2000D62808D1064B0122204621699847431C4B
:100C30005842584110BD0020FCE700BF00000000F2
:100C40000000000010B5084B04469847D72808D18B
:100C5000064B0122204621699847431C58425841BF
:100C600010BD0020FCE700BF0000000000000000F5
:100C700038B50C4B04469847C72811D12569022284
:100C800029462046084B9847013009D1074B0122DD
:100C9000294620469847A0F10C035842584138BDD8
:100CA0000020FCE700000000000000000000000041
:100CB00010B5D0E901431B1BB1EBA30F3DBF036887
:100CC00054F82110D218002038BF505C10BD00002D
:100CD00038B5037D04460D461BB1D0E9012393428C
:100CE00003D100236375002038BD9B1A0269B2EB63
:100CF000A30FF6D2044B98472870637D002BF2D0E7
:100D00002046024B9847EFE700000000000000007B
:100D100070B5037D04460D461BB1D0E90123934213
:100D200003D100236375002070BD06699B1AB6EBE2
:100D3000A30FF6D2012343750C4B9847C22806F146
:100D400001030FD12361002231462046084B98470A
:100D500000F001002870637D002BE4D02046054B95
:100D60009847E1E7002023616075F3E70000000089
:100D700000000000000000002DE9F043037D044660
:100D80000E4685B01BB1D0E90123934205D1002363
:100D90006375002005B0BDE8F08305699B1AB5EBCB
:100DA000A30FF4D20127464B47759847DA28454BE5
:100DB0006CD00BD8A02824D0D9284DD000220135E2
:100DC00041496275256101A898472FE0DB28F5D1DC
:100DD0003D4901A898473A46204621693B4B984730
:100DE00000250746DFF8FC80DFF8FC90AF42216960
:100DF0001AD06A1D2046C047014601A8C8470135E0
:100E0000F4E7314901A89847002220462169304B78
:100E100098470025DFF8CC80DFF8CC9000F01F0762
:100E2000EBB29F4221690FD801312161294B01A901
:100E300030469847284B01A89847637D002BA8D0DF
:100E40002046264B9847A5E701352A462046C0474D
:100E5000014601A8C847E3E71B4901A898473A465D
:100E6000204621691A4B984700250746DFF8748011
:100E7000DFF87490EBB2BB422169D5D2AA1C2046A0
:100E8000C047014601A8C8470135F3E70E4901A84C
:100E900098473A4620462169114B98470025074656
:100EA000DFF84080DFF84090ABB29F422169BBD9A8
:100EB000EA1C2046C047014601A8C8470135F3E7B0
:100EC0000000000000000000000000000000000022
:100ED0000000000000000000000000000000000012
:100EE0000000000000000000000000002DE9F041BB
:100EF000037D04460E461BB1D0E90123934204D181
:100F0000002363750020BDE8F08107699B1AB7EBE9
:100F1000A30FF5D2012343751F4B984707F1010832
:100F200090B11E4B022239462046C4F810809847E3
:100F300000231D46C6E90003B560637D002BE1D0A8
:100F40002046174B9847DEE72046164B984750B18E
:100F5000154B022239462046C4F8108098478D0868
:100F600001F00303E6E72046104B9847054670B1B1
:100F700003223946094B204698470B4B054607226A
:100F800039462046C4F8108098470B46D2E70346FE
:100F90006075C4F81080CDE700000000000000007C
:100FA0000000000000000000000000000000000041
:100FB000F8B507460423174E013B00D1FEE735681C
:100FC000BD4202D174682046F8BD05BB3146124BC4
:100FD00041F8087B4FF4836098474FF480620446E1
:100FE0000E4B294640F8047B98474FF0FF330C4ADC
:100FF000C4F808341368C4F804540133C4F80C541A
:10100000C4F81054C4F8145413607460DBE706F598
:101010008466D1E70000000000000000000000002E
:101020000000000010B50446006818B1A168024B2A
:10103000091A9847204610BD0000000010B504466C
:10104000064B00F596709847054B04F58C70984751
:10105000044B04F586709847204610BD0000000040
:1010600000000000000000002DE9F84F6FF0604321
:10107000D0E9008A1546AAEB0802B3EBA20F074697
:1010800089464FEAA20402D12748284B9847C24517
:1010900014BF22460122A418A1EB080B2BD264B383
:1010A0009C4228BF1C46224BA00098470646214B75
:1010B000042006EB0B0198472B68BBF1000F03607F
:1010C0000BF10405AAEB090A19DD5A4641463046E0
:1010D000194B98477019BAF1000F00EB0A0503DDB0
:1010E00052464946154B9847B9684046144BA1EB08
:1010F0000801984710E01C46D5E72646D7E7BAF125
:10110000000F354404DD5246494628460B4B9847AC
:101110005544B8F1000FE7D1C7E9006506EB840636
:10112000BE60BDE8F88F00BF0100000000000000B5
:1011300000000000000000000000000000000000AF
:10114000000000002DE9F743044616460025184F1D
:10115000DFF86080DFF860900160AE42A168019521
:101160000FD8636851F8045CC91A89102046013908
:10117000B8472844831B58425841207503B0BDE846
:10118000F083E3688B420ED00420C8470560A36853
:101190000433A360D4E90131C91A8910204601390A
:1011A000B8470544D9E7194601AA201DC047F1E711
:1011B00000000000000000000000000010B5044620
:1011C0001046D4E900236FF000449B1AE21A8A42C9
:1011D00001D2074B9847994238BF19465B1804D291
:1011E000A34228BF2346184610BD2046FCE700BF97
:1011F000000000002DE9F047D0E901739F4204464A
:101200008846DFF878A00AD039460120D04798F800
:1012100000300370636801336360BDE8F087134AF0
:101220000121134B9847134B266881469847B91BF9
:10123000014405460120D04798F800303946037034
:101240002A46DFF83C803046C0473946421C3846C3
:10125000C047074626B1A1683046074B891B98470F
:10126000C4E900574D44A560D7E700BF0100000066
:10127000000000000000000000000000000000006E
:10128000000000002DE9F047D0E901739F420446B9
:101290008846DFF878A00AD039460120D04798F870
:1012A00000300370636801336360BDE8F087134A60
:1012B0000121134B9847134B266881469847B91B69
:1012C000014405460120D04798F8003039460370A4
:1012D0002A46DFF83C803046C0473946421C384633
:1012E000C047074626B1A1683046074B891B98477F
:1012F000C4E900574D44A560D7E700BF01000000D6
:1013000000000000000000000000000000000000DD
:10131000000000002DE9F043037D05460F4685B02F
:101320001BB1D0E90123934205D100236B75002046
:1013300005B0BDE8F08306699B1AB6EBA30FF4D2A3
:101340004FF001083A4B80F815809847C5284FF0B8
:1013500000042ED0C62848D0C42861D14246314668
:101360002846DFF8E480CDE901440394C0470646EF
:10137000DFF8D890E3B29E4229690FD80131296184
:1013800038462C4B01A998472B4B01A898476B7DF9
:10139000002BCCD02846294B9847C9E7A21C2846E9
:1013A000C0470DF103018DF8030001A8C8470134BF
:1013B000E0E7424631462846214BCDE901440394FB
:1013C00098470646DFF88080DFF88090A3B2B342EA
:1013D0002969D3D2E21C2846C0470DF103018DF8DC
:1013E000030001A8C8470134F0E7424631462846C9
:1013F000144BCDE90144039498470646DFF8488032
:10140000DFF84890A6422969B8D0621D2846C04737
:101410000DF103018DF8030001A8C8470134F1E77D
:101420000136CDE901446C752E610394A8E700BF35
:1014300000000000000000000000000000000000AC
:10144000000000000000000000000000000000009C
:1014500007B5044B8DF807100DF10701984703B04D
:101460005DF804FB0000000010B50446034BC021EA
:101470009847E3680133E36010BD00BF000000003F
:1014800037B504460D46074BCC2198472046064BFE
:101490000DF107018DF807509847E3680133E360C9
:1014A00003B030BD00000000000000002DE9F0474F
:1014B000D0E901739F4204468846DFF878A00AD03D
:1014C00039460120D04798F8003003706368013333
:1014D0006360BDE8F087134A0121134B9847134B13
:1014E000266881469847B91B014405460120D0472C
:1014F00098F80030394603702A46DFF83C803046C1
:10150000C0473946421C3846C047074626B1A16845
:101510003046074B891B9847C4E900574D44A560E6
:10152000D7E700BF0100000000000000000000003D
:10153000000000000000000000000000F8B50546B3
:101540000E460324034F31192846B847013CFAD20E
:10155000F8BD00BF0000000013B504460191064B22
:10156000CE2198472046054B01A99847E3680133EF
:10157000E36002B010BD00BF0000000000000000EA
:1015800070B505460C46044E0131B0472146284649
:101590003346BDE870401847000000000F2913B51E
:1015A00004460BD861F06F018DF804100D4B01A9B2
:1015B0009847E3680133E36002B010BDB1F5803FA6
:1015C000094B08D2ADF80410DC2198472046074BA0
:1015D00001A99847EDE70191DD2198472046044B8A
:1015E00001A9F6E700000000000000000000000074
:1015F0000000000013B50446ADF80610064BCD21DF
:1016000098472046054B0DF106019847E3680133E2
:10161000E36002B010BD00BF000000000000000049
:101620007E2913B504460AD80D4B8DF807100DF12D
:1016300007019847E3680133E36002B010BDFF295A
:1016400003D8084BC9B29847F7E7B1F5803F03D2FA
:10165000054B89B29847F0E7044B9847EDE700BF88
:10166000000000000000000000000000000000007A
:1016700073B50C1E054621DB7E2C08DC8DF804407A
:1016800001A9234B9847EB680133EB6008E0E317AF
:10169000B4F5807F73F1000204D21E4BE1B298478B
:1016A00002B070BDB4F5803F73F1000303D21A4B52
:1016B000A1B29847F4E7194B9847F1E714F11E0FD0
:1016C000DCDA14F1800F164B06DBD0219847284650
:1016D0008DF8044001A9D4E714F5004F114E0BDB3F
:1016E000D121ADF80440984728460DF10501B047D7
:1016F000284601A9B047C6E70194D22198470324A0
:1017000001AB19192846B047013CF9D2BBE700BF2D
:1017100000000000000000000000000000000000C9
:1017200000000000000000002DE9F84F04460D46BF
:10173000DFF88CA001EB020BAB4501D1BDE8F88FBF
:10174000D4E90183984509D041460120D0472B7840
:1017500003706368013363600135EDE7134A0121CB
:10176000134B20469847134B276881469847A8EBB0
:101770000701014406460120D0472B7841460370FB
:1017800032460D4B384698474146421C0A4B40466C
:101790009847804627B1A1683846084BC91B98472F
:1017A000C4E900684E44A660D6E700BF010000000F
:1017B0000000000000000000000000000000000029
:1017C00000000000F7B58D6804461F2D0F68174E06
:1017D0000FD865F05F038DF8043001A9144B9847CA
:1017E0002A4639462046B047E3680133E36003B038
:1017F000F0BDFF2D0F4B06D8D921984720468DF814
:10180000045001A9EAE7B5F5803F08D2DA219847EC
:101810002046094BADF8045001A99847E0E7DB21C9
:1018200098472046054B019501A9F6E70000000006
:1018300000000000000000000000000000000000A8
:1018400070B5044616461D46074B9847204631683A
:10185000064B984720462968054B9847204604992F
:10186000044B984770BD00BF00000000000000005E
:10187000000000000000000038B50C4605460221BB
:10188000074B984754F8041B2846064B98472846B0
:101890002146054B98472846044B984738BD00BF62
:1018A0000000000000000000000000000000000038
:1018B000F0B51B4B064689B008460F4614469847BC
:1018C0000546B0B91749184B01A89847FD2301A94F
:1018D000049305A8154B9847154D01A8A847204625
:1018E000144B04A9984705A8A8470025284609B025
:1018F000F0BD00236946009338460F4B9847009B84
:101900000BB10E49DFE7F3680BB90D4B984733690C
:10191000301D98470B4E2046B0472046B047E5E7BC
:10192000000000001B00000000000000000000009C
:101930000000000000000000000000003B0000006C
:10194000000000000000000038B50569D0E901235F
:101950009B1AB5EBA30F044603D300234375002065
:101960001CE001234375214B984728B300F1340351
:10197000DBB2142B35D8CC38142832D8DFE800F08D
:101980001F22252B0F1215183131313131313131F0
:10199000313131310B002046154B984738BD204678
:1019A000144BFAE72046144BF7E72046134BF4E7B5
:1019B0002046134B9847F1E72046124BEDE72046AF
:1019C000114BEAE72046114BE7E72046104B9847BA
:1019D00020EAE070E2E720460E4B98470029DDDA66
:1019E000BDE70023013563752561B8E700000000FD
:1019F00000000000000000000000000000000000E7
:101A000000000000000000000000000000000000D6
:101A1000000000000000000038B5037D04460D46BC
:101A20001BB1D0E90123934203D100236375002049
:101A300038BD9B1A0269B2EBA30FF6D2044B98474C
:101A40002860637D002BF2D02046024B9847EFE7D9
:101A5000000000000000000038B50569D0E901234E
:101A60009B1AB5EBA30F044604D3002343759FEDE7
:101A70002F0A21E0012343752D4B9847A8B100F1AF
:101A80003603DBB2162B4BD8CA38162848D8DFE805
:101A900000F03B3F14171A1D2D3033364747474798
:101AA000474747474747474725002046214B984728
:101AB00000EE100AB8EE400A38BD20461E4BF6E78D
:101AC00020461E4BF3E720461D4BF0E71D4B2046FA
:101AD00098471D4B984700EE100AEDE720461B4B38
:101AE000984700EE100AB8EEC00AE5E72046184B0A
:101AF000F6E72046174BF3E72046174BF0E7174B66
:101B000020469847164BE5E72046164B9847D3E703
:101B10002046154B9847154B51EC100B9847DAE7C8
:101B20000023013563752561A1E700BF00000000B7
:101B300000000000000000000000000000000000A5
:101B40000000000000000000000000000000000095
:101B50000000000000000000000000000000000085
:101B60000000000000000000000000000000000075
:101B700038B50569D0E901239B1AB5EBA30F0446DC
:101B800004D3002343759FED2C0B21E00123437503
:101B90002B4B9847A8B100F13603DBB2162B46D881
:101BA000CA38162843D8DFE800F0363E14171A1D4D
:101BB000282B2E314242424242424242424242425B
:101BC000230020461F4B98471F4B984741EC100BB2
:101BD00038BD20461D4BF6E720461D4BF3E7204657
:101BE0001C4BF0E71C4B204698471C4B9847EDE7F1
:101BF00020461B4B98471B4BE7E720461A4BF9E75B
:101C000020461A4BF6E72046194BF3E7194B2046BE
:101C10009847194BEAE72046184B9847184B10EEA7
:101C2000100A9847D2E72046164B9847D0E7002382
:101C3000013563752561A6E7000000000000000083
:101C40000000000000000000000000000000000094
:101C50000000000000000000000000000000000084
:101C60000000000000000000000000000000000074
:101C70000000000000000000000000000000000064
:101C8000000000000000000070B5037D04460E4611
:101C900015461BB1D0E90123934203D1002363759C
:101CA000002070BD9B1A0269B2EBA30FF6D2054B60
:101CB00098473060637D002BF2D029462046024BC6
:101CC0009847EEE70000000000000000F8B5064667
:101CD0000F4615460024AC4201D32046F8BD3068BB
:101CE0002A1B036839199B6898470444F3E70000EE
:101CF0002DE9F041044600201D4688B0D4F8107448
:101D0000CDE90300CDE905000790009102AB042165
:101D100004A81646DFF8588003AA0297C04701219D
:101D20000F4B04A8984729460E4B04A89847DDE9B5
:101D300004156D1A2A4620460B4B984785420B4ADC
:101D400004D004A8904708B0BDE8F081D4F810345E
:101D500004A80133C4F8103490473760F3E700BF9C
:101D60000000000000000000000000000000000073
:101D7000000000002DE9F0410025044688B0D0F8AD
:101D8000107402AB009104A804211646DFF85480B9
:101D900003AACDE90355CDE9055507950297C0473C
:101DA00029460D4B04A89847DDE904156D1A2A460B
:101DB00020460A4B98478542094A04D004A8904718
:101DC00008B0BDE8F081D4F8103404A80133C4F899
:101DD000103490473760F3E7000000000000000077
:101DE00000000000000000002DE9F0410446002042
:101DF0001D4688B0D4F81074CDE90300CDE9050084
:101E00000790009102AB042104A81646DFF8588021
:101E100003AA0297C04701210F4B04A898472968DD
:101E20000E4B04A89847DDE904156D1A2A46204692
:101E30000B4B984785420B4A04D004A8904708B042
:101E4000BDE8F081D4F8103404A80133C4F810348C
:101E500090473760F3E700BF00000000000000007B
:101E600000000000000000000000000008B5D1F8EC
:101E700004315A1C09D0D1E946128A4205D0022BFE
:101E800003D00068014B521A984708BD00000000BB
:101E900003460846D3F8041430B514188C4210D801
:101EA00050B16FF003050432091A1A44ED1AAC1848
:101EB000A14202D8C3F8041430BD145C02F8014BEF
:101EC000F5E70020F8E7000010B5094B0022D0F834
:101ED0000C14044698474FF0FF33C4F8083400232D
:101EE000C4F80C34D4F814340133C4F8143410BDDD
:101EF000000000002DE9F041037D04460D46164622
:101F00001BB1D0E90123934203D100236375002064
:101F10002AE09B1A02694FEAA308B2EBA30FF4D29E
:101F2000124A134F136813F0010302BF3B600123F1
:101F30001360104B9847637D3860002BE7D023690E
:101F40009845E2D90C4B204698472860637D002BCA
:101F5000DDD00A4B2046291D9847637D002BD6D043
:101F600031462046064B9847BDE8F081000000004E
:101F70000000000000000000000000000000000061
:101F8000000000007FB50646134B1420984700253B
:101F900004466946114B0420CDE90055CDE90255B0
:101FA0009847066020460E4B0E4A039340F8042BD8
:101FB0000D4B022269466560C0E901552561029317
:101FC0009847039B68462361029BE360074B984751
:101FD000204604B070BD00BF0000000000000000FB
:101FE00000000000080000000000000000000000E9
:101FF00038B50569D0E901239B1AB5EBA30F044658
:1020000003D300234375002013E001234375124BD3
:10201000984758B100F13403DBB2032B17D8CD3801
:10202000022807D8DFE800F0090C0F0020460B4B10
:10203000984738BD20460A4BFAE72046094BF7E798
:102040002046094BF4E72046084B9847F1E7002368
:10205000013563752561D6E700000000000000002F
:102060000000000000000000000000000000000070
:1020700070B5037D04460E4615461BB1D0E9012319
:10208000934203D100236375002070BD9B1A02693F
:10209000B2EBA30FF6D2054B98473060637D002B5F
:1020A000F2D029462046024B9847EEE70000000098
:1020B000000000002DE9F041D1F80C740446032F14
:1020C0000D462A4E8CB006D820462949B0472046F6
:1020D0000CB0BDE8F081D1F8083433F00208F3D138
:1020E000244B06A89847244B06A898473A46234B0A
:1020F000291D06A8984748B92846214B98472046ED
:102100001B49B0471F4B07A89847E0E7184903A8A9
:10211000B0476A461C4B01A906A8CDF80480984731
:1021200048B92846164B984720461149B047174BE7
:1021300003A89847E6E7009B73B9019B042BF0D1F5
:10214000134B03AA02A906A898470028E9D0204605
:10215000104B03A99847EAE7022BE2D1019B032B1E
:10216000DFD10D4B03A906A89847EEE70000000059
:10217000000000000000000000000000000000005F
:10218000000000000000000000000000000000004F
:10219000000000000000000000000000F0B5D0F8D2
:1021A0000051044687B01DB90025284607B0F0BD90
:1021B00000F5947630461E4B98472A462146304615
:1021C0001C4B98470028EFD01B491C4B03A898478D
:1021D00000236A4602933046194B02A998470546E8
:1021E00020B90025174B03A89847DEE7009FA7B941
:1021F000029B042BF5D13046134B03AA01A9984743
:102200000028EED0114B03A904F586709847019B76
:10221000C4F80471C4F80831E4E7022FE1D1029B4D
:10222000032BDED130460A4B03A99847E8E700BFED
:10223000000000000000000000000000000000009E
:10224000000000000000000000000000000000008E
:10225000000000002DE9F047374B064688B00846DD
:102260000C46984704F5867804F59477C0B94FF08A
:10227000FF333249C4E94130C4F80001304B4046D5
:102280009847304B38469847D4E94632934218BFB6
:10229000C4F81C310023C4F8243108B0BDE8F0872D
:1022A000D4E94632934218BFC4F81C310023C4F865
:1022B0002431D4F8043104F58C7563B9042128461F
:1022C000214B984701212846204B98472846D4F8AF
:1022D00008111F4B98470024DFF888A006F1040975
:1022E000D6F8F43A41469C4212D31A4B01A89847BB
:1022F000FE2301A9049305A8174B98472846174BBE
:1023000004A99847164C05A8A04701A8A047C4E710
:102310004846D04709F11C0958B11C232A463946C2
:1023200003FB0464E06903689B6808B0BDE8F047FC
:1023300018470134D4E700BF00000000000000008F
:10234000000000000000000000000000000000008D
:10235000000000000000000000000000000000007D
:10236000000000000000000038B5037D04460D4663
:102370001BB1D0E90123934203D1002363750020F0
:1023800038BD9B1A0269B2EBA30FF6D2044B9847F3
:102390002860637D002BF2D02046024B9847EFE780
:1023A00000000000000000002DE9F0411E46037D02
:1023B0000446884617461BB1D0E901359D4204D139
:1023C000002363750020BDE8F081ED1A0369B3EBCB
:1023D000A50FF5D20F4B9847C8F80000637D002B7E
:1023E000F0D0237D002BEBD0D4E901308342E7D03D
:1023F000C01A2369B3EBA00FE2D2074B20469847DF
:102400003860637D002BDDD031462046034B984772
:10241000D9E700BF0000000000000000000000003D
:102420002DE9F043D0F80C640546032E8846174684
:102430001C468BB040F28680D0F80834012B40F067
:102440008180414B04A89847404B04A898473246E6
:102450003F4B291D04A8984738B900263D4B05A8D5
:10246000984730460BB0BDE8F0834FF000093A4E74
:1024700003AB02AA01A904A8CDF80490B047064610
:102480000028EAD0039B4345E7D1029B012B0AD0E9
:102490002046FC23314940F8043B314B98472846FD
:1024A000304B9847DAE7019B042B05D02046FC23EC
:1024B0002D4940F8043BF0E72C4B04A88DF8009020
:1024C0009847C02831D19DF824301BB1DDE90523A0
:1024D0009A4208D100238DF825302046FC23244958
:1024E00040F8043BD9E79B1A089AB2EBA30FF1D24C
:1024F000204B04A898479DF825308DF80000002B4C
:10250000EBD039461C4B04A898470028E5D01B4B5C
:1025100000222846D5F80C1498474FF0FF33C5F831
:1025200008340023C5F80C3498E76A462146144B5A
:1025300004A898470028EAD12046FC23114940F816
:10254000043BAAE700268CE7000000000000000022
:102550000000000000000000000000004F0000002C
:102560000000000000000000680000000000000003
:1025700085000000000000000000000000000000D6
:1025800000000000A60000002DE9F043D0F80C6424
:102590000546032E884617461C468BB040F28680BF
:1025A000D0F80834012B40F08180414B04A89847B3
:1025B000404B04A8984732463F4B291D04A8984732
:1025C00038B900263D4B05A8984730460BB0BDE80A
:1025D000F0834FF000093A4E03AB02AA01A904A808
:1025E000CDF80490B04706460028EAD0039B434547
:1025F000E7D1029B012B0AD02046FC23314940F849
:10260000043B314B98472846304B9847DAE7019B0B
:10261000042B05D02046FC232D4940F8043BF0E76D
:102620002C4B04A88DF800909847C02831D19DF814
:1026300024301BB1DDE905239A4208D100238DF82F
:1026400025302046FC23244940F8043BD9E79B1A57
:10265000089AB2EBA30FF1D2204B04A898479DF83B
:1026600025308DF80000002BEBD039461C4B04A818
:1026700098470028E5D01B4B00222846D5F80C14BB
:1026800098474FF0FF33C5F808340023C5F80C34E1
:1026900098E76A462146144B04A898470028EAD1D7
:1026A0002046FC23114940F8043BAAE700268CE7AA
:1026B000000000000000000000000000000000001A
:1026C000000000004F0000000000000000000000BB
:1026D000680000000000000085000000000000000D
:1026E000000000000000000000000000A600000044
:1026F00038B50C1A134605D0014622461846024D3D
:10270000A8470346181938BD0000000038B50C1A58
:10271000134605D0014622461846024DA8470346F7
:10272000181938BD000000002DE9F74F9846002326
:1027300008F1010A9A45044689461746C0E9003364
:10274000836002DA2F48304B984713D02F4B504606
:102750009847266805460246616830462C4B9847E4
:1027600026B1A16830462B4B891B9847C4E9005518
:102770005544A5602046284B0DF1070107EB080BD7
:102780008DF807909847BB4516D0D4E901639B1B91
:102790009845DFF890A0DFF8909011D8324659465E
:1027A0003846D04762683146424462603046C84786
:1027B000324639463846D047204603B0BDE8F08F50
:1027C0004146164A164B20469847104B804698477C
:1027D0003146024605462068C847594602463846F3
:1027E000D047616802463046C8470646206818B19F
:1027F000A168084B091A9847C4E900564544A560EA
:10280000DAE700BFCA00000000000000000000007E
:10281000000000000000000000000000DA000000DE
:102820000000000000000000000000002DE9F84357
:102830000D69D1E901239B1AB5EBA30F06460C469F
:1028400005D300234B75C6E90033B36026E00123AE
:1028500008464B754C4B9847C7386F1C112800F23F
:102860008F80DFE800F05A6F7E8D8D8D8D8D8D8D80
:102870008D8D8D091E2D3C4B01222946434B204650
:1028800098470222424B80462946204627619847B6
:1028900001230246414630463E4CA0473046BDE843
:1028A000F88301222946394B204698470222384BAB
:1028B0008046294620462761984702230246E9E7D9
:1028C00001222946314B204698470222304B804650
:1028D000294620462761984704230246DAE7012269
:1028E00029462A4B204698470222294B80462946F2
:1028F00020462761984708230246CBE70122294654
:10290000224B204698470222214B804629462046EA
:102910002761984710230246BCE7012229461E4B37
:10292000204698470222814629462046174B984761
:10293000032280462761164B2946204698474B467E
:102940000246A7E701222946144B20469847032256
:102950008146294620460D4B984704228046276130
:10296000E9E7012229460E4B204698470522814679
:1029700029462046054B9847062280462761DAE71C
:102980000023276163755EE700000000000000007F
:102990000000000000000000000000000000000037
:1029A000000000002DE9F043784B85B004469847BD
:1029B000C028064604D120467549764B984731E039
:1029C000C22803D120467449744BF7E72046744B64
:1029D000984720B92046734B9847054618B12046C2
:1029E0007149724BEAE7CA2E1ED1237D1BB1D4E98F
:1029F00001239A4205D100236375284605B0BDE83E
:102A0000F0839B1A2269B2EBA30FF4D2684B2046E5
:102A10009847684B83ED000A637D002BEDD020467C
:102A2000654B98470546E8E7CB2E12D1237D002B56
:102A3000E1D0D4E901239A42DDD09B1A2269B2EB9E
:102A4000A30FD8D25D4B204698475D4B83ED000B1A
:102A5000E2E7A02E21D006F12703DBB2022B1CD91E
:102A600006F13C03DBB2022B28D92046554B984790
:102A7000074600283ED000252046534B019501A96A
:102A800098472E46DFF8A881DFF8A891019BC8F887
:102A900000509E4224D33D46AFE74C4D2B68DA07E9
:102AA00008D44B4B4B494C48984701234B482B606B
:102AB0004B4B9847204648494A4B7FE74A490B68A9
:102AC000DB0709D40022494B4948C3E900229A6038
:102AD00001230B60424B984720464449454B6DE724
:102AE0002046C8470546002887D0D8F80030013670
:102AF0005D1CCBE72046404B984718B120463F4924
:102B00003F4B5BE706F12C03DBB2042B15D93936BA
:102B1000F6B2022E11D920463A4B984748B92046C2
:102B2000394B984728B92046384B984700283FF43E
:102B300064AF20463649374B40E737490B6813F0FE
:102B4000010308D1354A3648C2E9003393600123B6
:102B50000B60234B9847237D002B3FF44CAFD4E907
:102B600001239A423FF447AF9B1A2269B2EBA30FAD
:102B7000BFF441AF214601A82A4B984727482A4B6A
:102B800001A99847294B01A8984745E70000000094
:102B90000000000000000000000000000000000035
:102BA0000000000000000000000000000000000025
:102BB0000000000000000000000000000000000015
:102BC0000000000000000000000000000000000005
:102BD00000000000000000000000000000000000F5
:102BE00000000000000000000000000000000000E5
:102BF00000000000000000000000000000000000D5
:102C000000000000000000000000000000000000C4
:102C100000000000000000000000000000000000B4
:102C200000000000000000000000000000000000A4
:102C300000000000000000002DE9F04FD0F80C3437
:102C40000446032B89B04FD82E4B02A89847002684
:102C50002D4FDFF8D080DFF8D090D4F80434B342A1
:102C60003FD902A80136B8473246211D02A8C04705
:102C70000028F2D002A8C8470028EED000236946F9
:102C8000009302A8214B9847009DD5B1204B02A884
:102C9000984718B91F4B02A8984740B31E4B01A98B
:102CA00002A89847012DDDF804A00AD00125DFF81D
:102CB0007CB002A8D8470028CFD0009B01359D42A8
:102CC000F7D3BAF1020F02D815D0042D15D0134B4B
:102CD0000022314620469847D4F814340133C4F812
:102CE00014340F4B03A8984709B0BDE8F08F054690
:102CF0006FF0010ADBE7032DE8E7C4F808A4C4F885
:102D00000C64EEE70000000000000000000000007E
:102D100000000000000000000000000000000000B3
:102D200000000000000000000000000000000000A3
:102D300038B50446006803685B69984790B1D4F8D9
:102D40000434B3F5806F0DD0214651F8040B0268AE
:102D50001944D568C3F58062A847D4F80434034405
:102D6000C4F804342046014B984738BD00000000E9
:102D70002DE9F043064685B00068274B90460D4686
:102D800098473168254B01A898472549254B01A84C
:102D90009847044630B9DFF89890371DD6F8F43AD2
:102DA0009C4207D30024204B01A89847204605B039
:102DB000BDE8F083384601A9C84710B901341C3773
:102DC000ECE7414607F10C00C8470028F6D0306810
:102DD000D0F8083433F002031CD1D0F80C140A1FC9
:102DE000FC2A17D82B46C21C4C1912F8016F03F8A5
:102DF000016BA342F9D14FF0FF330022C0F8083431
:102E0000C0F80C24094B9847041E18BF0124C5F8CC
:102E10000001C8E70020F7E7000000000000000004
:102E200000000000000000000000000000000000A2
:102E3000000000002DE9F04100F110060446D4B076
:102E4000642200233046DFF89880C047C8B9194B88
:102E500004A8984765681849184B01A89847284660
:102E6000174B01AA04A998470746164B01A8984793
:102E7000154D304647B9A847144B9847144B04A842
:102E8000984754B0BDE8F081A8476068114B04A989
:102E90009847114F04F12406642200233046C047AE
:102EA00030B960680D4B04A998473046A847E5E75C
:102EB000B847F1E700000000F20000000000000049
:102EC0000000000000000000000000000000000002
:102ED00000000000000000000000000000000000F2
:102EE0000000000008B5044B9847044890F83831BA
:102EF0000BB1034B984708BD000000000000000024
:102F0000000000002DE9F04100F110060446D4B0A5
:102F1000642200233046DFF89880C047C8B9194BB7
:102F200004A8984765681849184B01A8984728468F
:102F3000174B01AA04A998470746164B01A89847C2
:102F4000154D304647B9A847144B9847144B04A871
:102F5000984754B0BDE8F081A8476068114B04A9B8
:102F60009847114F04F12406642200233046C047DD
:102F700030B960680D4B04A998473046A847E5E78B
:102F8000B847F1E70000000000000000000000006A
:102F90000000000000000000000000000000000031
:102FA0000000000000000000000000000000000021
:102FB0000000000008B5054C054E064D94F8383168
:102FC0000BB12046B047A847F8E700BF000000005B
:102FD0000000000000000000F8B50E460446174649
:102FE0001D460068094B984731462B46084E3A4625
:102FF0002068B047064638B1294651F8043B44F8EA
:10300000043F201D034B98473046F8BD00000000E8
:103010000000000000000000F8B50E460446174608
:103020001D460068094B984731462B46084E3A46E4
:103030002068B047064638B1294651F8043B44F8A9
:10304000043F201D034B98473046F8BD00000000A8
:1030500000000000000000002DE9F047037D044659
:103060000E463BBB1A4F1B4D64220023E06AB84753
:1030700030BB606A236B0068174D04F1100204F145
:103080001801A847E06A154DA847DFF84880DFF827
:103090005090DFF850A064220023A06AB847A8B976
:1030A000234632462169606AC84758B1A06AA847DA
:1030B000012323752068B0FA80F04009BDE8F0874D
:1030C000A847D1E7A06AA847D047E4E7C047E2E7AE
:1030D00000000000000000000000000000000000F0
:1030E00000000000000000002DE9F04F054600261A
:1030F000AA460F469BB05649DFF884910AA890462D
:10310000C847544B0DA85AF810BB534C98470AA90E
:1031100011968DF8486013A8A04705F12403CDE966
:1031200016BACDE918370DF10F014C4B0DA8984791
:103130009DF8483083468DF81C60002B27D1DFF8BE
:1031400044A1474E642200231898D04700286BD131
:103150001698199B0068434E11AA13A9B047424E16
:103160001898B0470196642200231798D04700288A
:1031700062D1119916983D4E0DAB07AAB0470028B1
:1031800054D0019B1798984701238DF84830384E4A
:1031900013A8B0470EA8B0470AA8B047BBF1000F6C
:1031A0003FD0344904A86D68C847394607A8A047EE
:1031B00004A90AA8A047D5F8F43A632B2BD82F1DF1
:1031C000BA464FF00009DFF8C0B0D5F8F43A994597
:1031D00034D307A90DA8A0470AA910A8A0474046C4
:1031E000254B98471390D5F8F44ADFF8A080631C6C
:1031F000C5F8F43A1C235C430DA93819C04704F103
:103200000C0010A93844C047139B2544EB6110A85B
:10321000B0470DA8B0470AA8B04707A8B04704A810
:10322000B0471BB0BDE8F08FB0478BE7019B179804
:103230009847124B984796E7094BFBE7504607A97A
:10324000D8470AF11C0A0028E5D109F10109BCE7B9
:10325000FB00000000000000000000000000000073
:10326000000000000000000000000000000000005E
:10327000000000000000000000000000000000004E
:10328000000000000000000000000000000000003E
:103290002DE9F0478A4C4FF4E131A0689AB00368F9
:1032A000884EDB6998470820B047A368864AE060EB
:1032B000C0E90023854D04F11000A84704F1240063
:1032C000A8471420B0470546DFF86892E068C84771
:1032D0002B4643F8040B1846DFF85C82C04740F6E3
:1032E000F8202560B0470746E068C8473D4645F8E6
:1032F000040B40F6F42200212846754B9847DFF86E
:103300003C92744E07F6F42A49462846B04705F128
:103310000C0049461C35B0475545F5D1002567607E
:10332000C7F8F45A6C4B29464FF4FA709847014697
:10333000E06300220023CDE9062305234FF4FA724F
:10334000CDE90253654F664BCDE9005565480495BC
:10335000B8476549A0630AA8B0470DA82768C047C9
:10336000624B11958DF848500AA913A89847604BF5
:1033700016971793143318939DF84830002B2AD1D1
:103380005C4F5D4D642200231898B847002840F038
:103390008680169B11AA186813A9584B9847584D58
:1033A0001898A847DFF85081DFF89491DFF894A1CE
:1033B000642200231798B847002876D111991698EF
:1033C0000DAB0DF12702C84700286AD01798A8470F
:1033D00001238DF8483000238DF824309DF84830C3
:1033E000002B28D1434F444D642200231898B8473E
:1033F00000285CD1169B11AA186813A93F4B984767
:103400003F4D1898A847DFF8F080DFF83C91DFF8CF
:1034100034A1642200231798B84700284DD1119990
:1034200016980DAB09AAC847002842D01798A8479C
:1034300001238DF84830334D13A8A8470EA8A8479C
:103440000AA8A8479DF8273013B1012384F8383122
:103450002D490DA8B0472D4C2D4A0DA91848A0475D
:103460000DA8A8472B490DA8B0472B4A0DA9144811
:10347000A0470DA8A84729490DA8B047284A0DA97B
:103480000F48A0470DA8A847264B98470320264B76
:1034900098472648264B98471AB0BDE8F087A847BA
:1034A00070E71798A847D04782E7C04780E7A8474A
:1034B0009AE71798A847D047ABE7C047A9E700BFEE
:1034C00000000000000000000800000000000000F4
:1034D00000000000000000000000000000000000EC
:1034E0000000000040000000060100000000000095
:1034F00010000000000000000000000000000000BC
:1035000000000000000000000E01000000000000AC
:10351000000000001801000000000000270100006A
:10352000000000000000000000000000000000009B
:10353000000000000000000000000000000000008B
:103540000000000000000000000000002DE9F8432A
:103550001A4B04460F469847064618B900263046CF
:10356000BDE8F883237D1BB1D4E901239A4215D12C
:103570000025657500239846DFF84C90A8453B6010
:10358000EDD02046C8470028E8D02046C84700288C
:10359000E4D03B6808F101080133EFE79B1A226988
:1035A000B2EBA30FE4D2064B20469847637D054655
:1035B000002BDFD02046034B9847DBE700000000DC
:1035C0000000000000000000000000002DE9F043B2
:1035D000D0F80C640546032E884617461C468BB06F
:1035E00040F28680D0F80834012B40F08180414BB6
:1035F00004A89847404B04A8984732463F4B291DE2
:1036000004A8984738B900263D4B05A8984730468E
:103610000BB0BDE8F0834FF000093A4E03AB02AAAD
:1036200001A904A8CDF80490B04706460028EAD0C6
:10363000039B4345E7D1029B012B0AD02046FC2384
:10364000314940F8043B314B98472846304B984766
:10365000DAE7019B042B05D02046FC232D4940F8D6
:10366000043BF0E72C4B04A88DF800909847C02845
:1036700031D19DF824301BB1DDE905239A4208D1F0
:1036800000238DF825302046FC23244940F8043BD4
:10369000D9E79B1A089AB2EBA30FF1D2204B04A8EA
:1036A00098479DF825308DF80000002BEBD0394667
:1036B0001C4B04A898470028E5D01B4B0022284645
:1036C000D5F80C1498474FF0FF33C5F808340023A1
:1036D000C5F80C3498E76A462146144B04A898476D
:1036E0000028EAD12046FC23114940F8043BAAE710
:1036F00000268CE700000000000000000000000031
:1037000000000000000000004F000000000000006A
:1037100000000000680000000000000085000000BC
:103720000000000000000000000000000000000099
:10373000A60000002DE9F74F037D04460F46002B3D
:103740003CD1DFF8A080224D64220023E06AC0470C
:1037500030BB606A236B006804F1100204F11801A9
:103760001C4DA8471C4EE06AB047DFF86490DFF8B4
:1037700078A0DFF878B064220023A06AC04720BB9D
:10378000656A216928680191D04723463A46019924
:103790002868D84730B9A06AB047104B9847EAE785
:1037A000A847D1E7214651F8043B45F8043F281DBE
:1037B0000B4B9847A06AB047012323752068B0FAE5
:1037C00080F0400903B0BDE8F08FC847D3E700BFE1
:1037D00000000000000000000000000000000000E9
:1037E00000000000000000000000000000000000D9
:1037F0002DE9F04796B003AE0C461546074638490A
:103800003046DFF80481C047DFF800912544A54227
:1038100058D13C6900252746324906A8C047324B9B
:1038200009A857F8108B9847304B06A90FA82434E5
:103830000D958DF8385098472D4B02A909A8CDE970
:103840001446CDE9128798479DF8383004468DF824
:103850000450002B27D1274F274D642200231498B2
:10386000B847002833D11298159B0068234D0DAA44
:103870000FA9A8471498224DA847DFF87C80DFF8ED
:103880009090DFF890A0642200231398B84720BBE3
:103890000D99129809AB01AAC847D0B11398A8474F
:1038A00001238DF83830174D0FA8A8470AA8A8475C
:1038B00006A8A84704B1029C3046A847204616B087
:1038C000BDE8F087304614F8011BC8479FE7A847BA
:1038D000C3E71398A847D047D5E7C047D3E700BF51
:1038E00000000000310100000000000000000000A6
:1038F00000000000000000000000000000000000C8
:1039000000000000000000000000000000000000B7
:1039100000000000000000002DE9F043D0F80C6426
:103920000546032E884617461C468BB040F286801B
:10393000D0F80834012B40F08180414B04A898470F
:10394000404B04A8984732463F4B291D04A898478E
:1039500038B900263D4B05A8984730460BB0BDE866
:10396000F0834FF000093A4E03AB02AA01A904A864
:10397000CDF80490B04706460028EAD0039B4345A3
:10398000E7D1029B012B0AD02046FC23314940F8A5
:10399000043B314B98472846304B9847DAE7019B68
:1039A000042B05D02046FC232D4940F8043BF0E7CA
:1039B0002C4B04A88DF800909847C02831D19DF871
:1039C00024301BB1DDE905239A4208D100238DF88C
:1039D00025302046FC23244940F8043BD9E79B1AB4
:1039E000089AB2EBA30FF1D2204B04A898479DF898
:1039F00025308DF80000002BEBD039461C4B04A875
:103A000098470028E5D01B4B00222846D5F80C1417
:103A100098474FF0FF33C5F808340023C5F80C343D
:103A200098E76A462146144B04A898470028EAD133
:103A30002046FC23114940F8043BAAE700268CE706
:103A40000000000000000000000000000000000076
:103A5000000000004F000000000000000000000017
:103A60006800000000000000850000000000000069
:103A7000000000000000000000000000A6000000A0
:103A80002DE9F74F037D04460F46002B3CD1DFF8AC
:103A9000A080224D64220023E06AC04730BB606AE8
:103AA000236B006804F1100204F118011C4DA847B3
:103AB0001C4EE06AB047DFF86490DFF878A0DFF8CA
:103AC00078B064220023A06AC04720BB656A2169E0
:103AD00028680191D04723463A4601992868D8477B
:103AE00030B9A06AB047104B9847EAE7A847D1E73A
:103AF000214651F8043B45F8043F281D0B4B9847DD
:103B0000A06AB047012323752068B0FA80F040090D
:103B100003B0BDE8F08FC847D3E700BF0000000046
:103B20000000000000000000000000000000000095
:103B30000000000000000000000000002DE9F0433C
:103B400097B004460191002969D0066900253746DF
:103B50004449454B06A8CDE9035505959847434B85
:103B600009A857F8108B984706A9414B0FA80D9547
:103B70008DF83850243698473E4D01AB06A8159372
:103B8000CDE912871496A8473B4B03A909A898478B
:103B900078B104F508764FF0FF3238494FF0FF3323
:103BA00030468847DDE903218A423BD13046344B19
:103BB000984700238DF818309DF83830002B27D116
:103BC0002E4E304C642200231498B047002841D177
:103BD0001298159B00682C4C0DAA0FA9A0471498A9
:103BE000274CA047274FDFF8A880DFF8A890642271
:103BF00000231398B047002832D10D99129809ABD1
:103C000006AAC04740B31398A04701238DF8383067
:103C10000FA8A8470AA8A8471C4B03A8984717B0A5
:103C2000BDE8F083D4F81C32B3F5007F10D0D4F88F
:103C30001432107823441875D4F814320133C3F3C6
:103C40000803C4F81432D4F81C320133C4F81C320F
:103C50000132A9E7A047B5E71398A047C847C6E7D0
:103C6000B847C4E73B01000000000000000000006E
:103C70000000000000000000000000000000000044
:103C80000000000000000000000000000000000034
:103C9000000000000000000038B5044600F508757B
:103CA0000B494FF0FF324FF0FF3328468847D4F8D6
:103CB0001C12C1F50071002902DD2046054B984712
:103CC000D4F81C422846044B9847204638BD00BF14
:103CD000000000000000000000000000F8B5002413
:103CE0002A4D2B4F1422214605F11000C5E900444E
:103CF000EC60B8471422214605F12400B847F822A9
:103D0000214605F14000C5E90E44B847214B224E3B
:103D1000AB604FF47A73B360204B4FF400722146CE
:103D200006F11400336085F8384174603561B84796
:103D30001422214606F50870C6F81442C6F8184247
:103D4000C6F81C42B847164B164AC3E907441D6023
:103D50001C765C62144B86F83442C3E906441C604E
:103D60001C6213680133012B13600DD103260F4D24
:103D7000C5E9004405F108004FF483620021B8470B
:103D8000013E05F58465F3D1F8BD00BF00000000D9
:103D9000000000000000000000000000080000001B
:103DA0000000000000000000000000000000000013
:103DB00008B5044A04481368013B1360034B984755
:103DC00008BD00BF000000001C0000000000000053
:103DD00070477047704700207047431E013913F841
:103DE000012F11F8010F0AB18242F8D0101A704762
:103DF00038B5094D0446A847E060236820465B6952
:103E00009847002807DAA847E368C01AA3689842D1
:103E1000F3D34FF0FF3038BD0000000081607047E1
:103E20002DE9F04107460D460C46DFF81C808E1840
:103E3000B44202D1601BBDE8F0813846C047031E82
:103E4000F8DB04F8013BF3E70000000000230A68F8
:103E500002604A68C1E9003342608A688B60826010
:103E60007047000010B50446006808B1014B984740
:103E7000204610BD0000000010B50446006808B1DF
:103E8000034B98470023C4E90133236010BD00BFF2
:103E90000000000038B504460D460068034B0131B0
:103EA000984710B1C4E90005012038BD00000000AA
:103EB00010B50368044613B143688B4207D220460D
:103EC000044B984720B1A3680BB9226813700120F6
:103ED00010BD00BF0000000070B50B4B0E46114630
:103EE00004461546984720B92046084B9847204677
:103EF00070BD2A463146064B2068A56098470021D0
:103F00002268A368D154F2E700000000000000001E
:103F10000000000038B5002304460D46C0E9003318
:103F2000836039B10846044B984729460246034B43
:103F300020469847204638BD0000000000000000E1
:103F4000884238B505460C460CD0074B00689847A8
:103F500023682B60A368AB6063686B600023C4E9CF
:103F60000133236038BD00BF00000000884210B557
:103F70000B46044604D0096821B19A68034B984760
:103F8000204610BD024B9847FAE700BF0000000032
:103F900000000000002310B50446C0E90033836030
:103FA000014B9847204610BD0000000010B50446A4
:103FB000014B9847204610BD0000000038B505466B
:103FC0000C4649B10846064B984721460246054B28
:103FD00028469847284638BD034B9847FAE700BF64
:103FE000000000000000000000000000F8B50446DA
:103FF00016460F46856809B90020F8BD82B1154400
:104000002946084B98470028F6D0A3682068324616
:1040100018443946044B984700222368A5605A5536
:104020000120EAE7000000000000000007B5054B92
:104030008DF8071001220DF10701984703B05DF8D4
:1040400004FB00BF00000000034600680A46096840
:1040500028B911B1936843B919460846704739B970
:1040600099680029F9D00178F7E709784942F4E71F
:10407000004B18470000000008B582688B689A4220
:1040800005D1044B9847B0FA80F0400908BD0020E4
:10409000FCE700BF0000000008B582682AB959B1EA
:1040A0000878B0FA80F0400908BD006809B90078C6
:1040B000F7E7024B9847F4E70120F5E7000000001E
:1040C0007047000038B5054B9847054B9847054B9E
:1040D0009847054D054CA847A047FCE700000000A5
:1040E00000000000000000000000000000000000D0
:1040F000012838BF0120014B184700BF0000000015
:10410000004B18470000000008467047004B184756
:10411000000000002DE9F0471B4C1C4D1C4F88B0DF
:104120002646AE4204F130040AD31A4B9847164C87
:10413000194EAC4223D3194B08B0BDE8F0471847DD
:1041400014ED027B54E90C0154E90A2354E908CE2A
:1041500054E9068954F810AC8DED067BCDE9039A3D
:10416000CDE901E8CDF800C0B84754F8300C54F858
:104170000C1C0B4B984754F8303C5E65D0E754F864
:10418000300BB047D5E700BF000000000000000082
:10419000000000000000000000000000000000001F
:1041A00000000000004B18470000000010B5034B52
:1041B0009847034C0A220023A04710BD00000000CE
:1041C000000000008368DB6903B11847704703688B
:1041D00040F213421B6A1847704707B503688DF811
:1041E000071001225B680DF10701984703B05DF8E5
:1041F00004FB012070470000004B1847000000003E
:10420000004908470000000037B5044600F1D40516
:104210004FF0FF324FF0FF3328460A4988470A4BD8
:1042200004F1800001220DF1070198470446074B75
:10423000284698471CB19DF8070003B030BD4FF0E9
:10424000FF30FAE70000000000000000000000005E
:1042500037B5044600F1D4054FF0FF324FF0FF337D
:1042600028460A4988470A4B04F1800001220DF1D3
:10427000070198470446074B284698471CB19DF80C
:10428000070003B030BD4FF0FF30FAE70000000038
:10429000000000000000000038B5044600F1D4051D
:1042A00028460A494FF0FF324FF0FF338847B4F8F1
:1042B0008C20B4F88430D4F890409B1A9BB22846E6
:1042C000E41A034B9847204638BD00BF00000000A9
:1042D0000000000070B5054600F1D4064FF0FF3233
:1042E000304607494FF0FF338847B5F88A30B5F8B4
:1042F00086403046E41AA4B2024B9847204670BD6F
:104300000000000000000000002337B58DF80730E2
:1043100002F00F03012B0446009143D0991E4B423B
:104320004B418DF8043002F0F003202B3CD0302BB1
:104330000CBF0323012302F47062B2F5007F8DF8F5
:10434000053033D0B2F5407F32D0B2F5807F0CBF5C
:104350000023032320698DF806308368DB680BB1E6
:10436000694698472069836823B19B6C13B1224644
:104370001049984704F1D4054FF0FF3228460E4902
:104380004FF0FF33884700232846C4E92133C4F89F
:104390008C300A4B9847206983689B6A03B1984721
:1043A00003B030BD0223BCE70223C4E70123D1E7F9
:1043B0000223CFE700000000000000000000000022
:1043C00038B50446084D628BE38B9A4207D1064DFF
:1043D000206983681B6B0BB1984710B138BDA847A3
:1043E000F1E7A847F4E700BF000000002DE9F84F0F
:1043F0000446884615460026DFF85890DFF858B086
:1044000004F168074FF0FF324FF0FF333846C847DA
:10441000AA1B08EB06010C4B04F1140098478246D6
:104420003846D8475644BAF1000F04D12069074BEB
:104430009847074B9847B542E2D12069034B98470C
:104440002846BDE8F88F00BF000000000000000013
:104450000000000000000000000000002DE9F3470C
:104460000446006983685B6C43BB04F1D4060022F8
:10447000002330462F4DA8472F4F206983685B6B80
:1044800013BB206983689B6913BB304604F168073E
:104490002A4EB047002200233846A847628BE38BA0
:1044A0009A4204D1206983681B6A03B19847DFF8F8
:1044B0009090DFF890A004F114081BE098470028C2
:1044C000D3D102B0BDE8F08798470028D9D1DCE706
:1044D000082269469847021ED7DD082AA8BF08228D
:1044E000694604F18000B8470028C6DACDE769467E
:1044F0004046D047206983685B6ABBB9658BE38B14
:10450000ED1AADB27DB1082D28BF082569462A46AF
:104510004046C847206983685B6923B12A466946DB
:104520009847021EE3DA3846B047CAE798470028A2
:10453000E4D1F8E7000000000000000000000000E7
:1045400000000000000000000846014B184700BFB3
:104550000000000010B504460122074B11465430FC
:10456000984704F1140323600023C4E90133E36096
:1045700040232361204610BD000000002DE9F041DA
:104580004FF000084FF47A770D4C0E4B0E4E0F4D46
:1045900004F114002361C4E901872660A84704F1EF
:1045A00080000B4CA8470B4B04F11400C4E90187B1
:1045B00026602361A84704F18000A847BDE8F08188
:1045C00000000000000000000800000000000000E3
:0845D0000000000000000000E3
:1045D80000766563746F723A3A5F4D5F7265616C1D
:1045E8006C6F635F696E7365727400556E73657284
:1045F80069616C697A61626C6520706172616D6570
:104608007465727320617272617900546F6F206DE6
:10461800616E7920706172616D65746572730055A1
:104628006E657870656374656420726573706F6E0B
:104638007365207479706500556E6578706563746C
:1046480065642052504320726573706F6E736520E5
:1046580073697A6500526573756C74206E6F742087
:104668007061727361626C652028636865636B2092
:10467800747970652900525043204572726F722018
:104688006E6F74207061727361626C652028636854
:1046980065636B20747970652900766563746F7241
:1046A8003A3A7265736572766500766563746F72FF
:1046B8003A3A5F4D5F72616E67655F696E736572E6
:1046C80074005F5F736166655F5F00242F726567C2
:1046D800697374657200242F726573657400636C66
:1046E8006561725F6C65640073686F775F6772619C
:1046F800646174696F6E0073686F775F6C6F676F62
:10470800006D6F6E2F7772697465006D6F6E2F7212
:104718006561640000000000000000000000000067
:104728000000000000000000000000000000000081
:104738000000000000000000000000000000000071
:104748000000000000000000000000000000000061
:104758000000000000000000000000000000000051
:10476800000000000000000000000000537973748E
:10477800656D204865617020656E643A2025700A71
:104788000053797374656D20486561702073746196
:1047980072743A2025700A00536B65746368204868
:1047A8006561702073746172743A2025702C2073CF
:1047B800697A652025700A006D61696E0000000045
:1047C80000000000000000000000000000000000E1
:1047D80000000000000000000000000000000000D1
:1047E80000000000000000000000000000000000C1
:0447F80000000000BD
:1047FC0000000000000000000000000000000007A6
:10480C00070700000007070700000007000000076B
:10481C000007000000070007000000000007000070
:10482C000700000707000707070007000707070036
:10483C000707000000000007000007000007000742
:10484C000000000700070000000700000007070732
:10485C0000000007070700000707070707070707FF
:10486C0007070707070606060606060606060606D7
:10487C0006060505050505050505050505050504DB
:10488C0004040404040404040404040403030303E0
:10489C0003030303030303030302020202020202E3
:1048AC0002020202020201010101010101010101E6
:1048BC0001010100000000000000000000000000E9
:085B3C00E80100000000000078
:085B4400000000000000000059
:045B4C000000000055
:04000003000040C5F4
:00000001FF
