:10000000704770477047704738B5054B9847054BA8
:100010009847054B9847054D054CA847A047FCE776
:1000200000000000000000000000000000000000D0
:10003000000000002DE9F0471B4C1C4D1C4F88B000
:100040002646AE4204F130040AD31A4B9847164CA8
:10005000194EAC4223D3194B08B0BDE8F0471847FE
:1000600014ED027B54E90C0154E90A2354E908CE4B
:1000700054E9068954F810AC8DED067BCDE9039A5E
:10008000CDE901E8CDF800C0B84754F8300C54F879
:100090000C1C0B4B984754F8303C5E65D0E754F885
:1000A000300BB047D5E700BF0000000000000000A3
:1000B0000000000000000000000000000000000040
:0400C000000000003C
:1000C40053797374656D204865617020656E643A78
:1000D4002025700A0053797374656D20486561703A
:1000E4002073746172743A2025700A00536B65742E
:1000F400636820486561702073746172743A2025C6
:10010400702C2073697A652025700A006D61696E10
:0101140000EA
:080118004C0000000000000093
:0400000300000009F0
:00000001FF
